:020000040800F2
:100000000080012051320008F9090008FB090008AE
:10001000FD090008FF090008010A000800000000AF
:10002000000000000000000000000000030A0008BB
:10003000050A000800000000070A0008090A000875
:10004000A1320008A1320008A1320008A132000844
:10005000A1320008A1320008A1320008A132000834
:10006000A1320008A1320008A1320008A132000824
:10007000A1320008A1320008A1320008A132000814
:10008000A1320008A1320008A1320008A132000804
:10009000A1320008A1320008A1320008110A0008AC
:1000A000A1320008A1320008A1320008A1320008E4
:1000B000A1320008A1320008A1320008A1320008D4
:1000C000A1320008A1320008A1320008A1320008C4
:1000D000A1320008A1320008A1320008A1320008B4
:1000E0002F0A0008A1320008A1320008A13200083E
:1000F000A1320008A1320008A1320008A132000894
:10010000A1320008A1320008A1320008A132000883
:10011000A1320008A1320008A1320008A132000873
:10012000A1320008A1320008A1320008A132000863
:10013000A1320008A1320008A1320008A132000853
:10014000A1320008A1320008A1320008A132000843
:10015000A1320008A1320008A1320008A132000833
:10016000A1320008A1320008A1320008A132000823
:10017000A1320008A13200080000000000000000C9
:08018000A1320008A1320008C1
:1001880010B5054C237833B9044B13B10448AFF3C9
:1001980000800123237010BD100000200000000023
:1001A800FC32000808B5034B1BB103490348AFF301
:1001B800008008BD0000000014000020FC32000888
:1001C80053B94AB9002908BF00281CBF4FF0FF31B6
:1001D8004FF0FF3000F074B9ADF1080C6DE904CEB2
:1001E80000F006F8DDF804E0DDE9022304B070470A
:1001F8002DE9F047089D04468E46002B4DD18A42D2
:10020800944669D9B2FA82F252B101FA02F3C2F104
:10021800200120FA01F10CFA02FC41EA030E944095
:100228004FEA1C48210CBEFBF8F61FFA8CF708FBB6
:1002380016E341EA034306FB07F199420AD91CEB8E
:10024800030306F1FF3080F01F81994240F21C81C0
:10025800023E63445B1AA4B2B3FBF8F008FB103308
:1002680044EA034400FB07F7A7420AD91CEB04043D
:1002780000F1FF3380F00A81A74240F2078164440D
:10028800023840EA0640E41B00261DB1D440002392
:10029800C5E900433146BDE8F0878B4209D9002DF6
:1002A80000F0EF800026C5E9000130463146BDE880
:1002B800F087B3FA83F6002E4AD18B4202D38242EA
:1002C80000F2F980841A61EB030301209E46002D99
:1002D800E0D0C5E9004EDDE702B9FFDEB2FA82F2EE
:1002E800002A40F09280A1EB0C014FEA1C471FFA4C
:1002F8008CFE0126200CB1FBF7F307FB131140EA33
:1003080001410EFB03F0884208D91CEB010103F1FF
:10031800FF3802D2884200F2CB804346091AA4B2C1
:10032800B1FBF7F007FB101144EA01440EFB00FE95
:10033800A64508D91CEB040400F1FF3102D2A645FA
:1003480000F2BB800846A4EB0E0440EA03409CE799
:10035800C6F12007B34022FA07FC4CEA030C20FA46
:1003680007F401FA06F31C43F9404FEA1C4900FA66
:1003780006F3B1FBF9F8200C1FFA8CFE09FB1811E3
:1003880040EA014108FB0EF0884202FA06F20BD956
:100398001CEB010108F1FF3A80F08880884240F2A6
:1003A8008580A8F102086144091AA4B2B1FBF9F0EA
:1003B80009FB101144EA014100FB0EFE8E4508D9E5
:1003C8001CEB010100F1FF346CD28E456AD902386A
:1003D800614440EA0840A0FB0294A1EB0E01A1424F
:1003E800C846A64656D353D05DB1B3EB080261EBBD
:1003F8000E0101FA07F722FA06F3F1401F43C5E997
:10040800007100263146BDE8F087C2F12003D840CC
:100418000CFA02FC21FA03F3914001434FEA1C470E
:100428001FFA8CFEB3FBF7F007FB10360B0C43EA00
:10043800064300FB0EF69E4204FA02F408D91CEBB0
:10044800030300F1FF382FD29E422DD902386344AE
:100458009B1B89B2B3FBF7F607FB163341EA03414E
:1004680006FB0EF38B4208D91CEB010106F1FF389D
:1004780016D28B4214D9023E6144C91A46EA004694
:1004880038E72E46284605E70646E3E61846F8E626
:100498004B45A9D2B9EB020864EB0C0E0138A3E76F
:1004A8004646EAE7204694E74046D1E7D0467BE750
:1004B800023B614432E7304609E76444023842E7C8
:1004C800704700BF2DE9F04F8BB0002405940694C7
:1004D800079408940994A24BDA6C42F01002DA648B
:1004E800DA6C02F010020092009ADA6C42F0040210
:1004F800DA64DA6C02F004020192019ADA6C42F0D2
:100508000102DA64DA6C02F001020292029ADA6CF1
:1005180042F00202DA64DA6C02F002020392039AF1
:10052800DA6C42F00802DA64DB6C03F00803049327
:10053800049B8C4D22464FF48A71284601F0C2FE76
:10054800224648F204114FF0904001F0BBFE864F5E
:1005580022464FF21401384601F0B4FEDFF80C923F
:10056800224641F28101484601F0ACFE01224FF4D7
:100578000051484601F0A6FEDFF8F4A122464FF4E8
:100588001071504601F09EFE01222021384601F0EC
:1005980099FE01221146284601F094FE40F21513F7
:1005A8000593012606960794089405A9284601F0A4
:1005B80089FD6A2305934FF4881BCDF818B007947A
:1005C80005A9284601F07EFD4FF4005305934FF42A
:1005D80004130693079405A9504601F073FD3F23C1
:1005E80005930B230693079405A9504601F06AFD6D
:1005F8004FF00308CDF81480022506950794CDF82E
:1006080020800823099305A94FF0904001F05AFD76
:1006180048F20413059306960794089405A94FF029
:10062800904001F04FFD0823059306950794089420
:10063800099605A94FF0904001F044FD1023059359
:100648000B230693079405A94FF0904001F03AFD5B
:10065800E023059306950794CDF820800523099398
:1006680005A94FF0904001F02DFD0596CDF818B082
:10067800079405A9384601F025FD05950B23069337
:10068800079405A9384601F01DFD4FF23403059380
:1006980006960794089405A9384601F013FD4CF610
:1006A80004430593CDF818B0079405A9484601F00E
:1006B80009FD43F28103059306960794089405A95A
:1006C800484601F0FFFC4FF4107305930696079413
:1006D800089405A9504601F0F5FC4FF4C073059342
:1006E800CDF818B0079405A9504601F0EBFC059524
:1006F80006950794CDF820800523099305A9484657
:1007080001F0E0FC7823059306950794CDF8208046
:100718000723099305A9484601F0D4FC4FF4407318
:100728000593122306930794CDF820800423099398
:1007380005A9384601F0C6FC22462146172001F0DB
:1007480005FF172001F03AFF22462146282001F034
:10075800FDFE282001F032FF0BB0BDE8F08F00BF8E
:10076800001002400010004800040048000C004837
:100778000008004872B6FEE708B50D480D4B036047
:1007880001220271002383600221C1600361436179
:100798004FF480718161C361042101624362826206
:1007A800C362036300F07EFB00B908BDFFF7E2FFF8
:1007B8002C0000202060014008B51148114B03604F
:1007C80040F614634360002383600122C260036122
:1007D80043618361C361036201F088FD50B9002160
:1007E800074801F0E7FD38B90021054801F010FE7F
:1007F80020B908BDFFF7BEFFFFF7BCFFFFF7BAFF40
:10080800640000200058004008B50A480A4B0360FD
:1008180002234360042383601023C360172303610A
:1008280000234361836101F017FF00B908BDFFF79A
:10083800A1FF00BF9C050020001000A008B50F48CC
:100848000F4B03604FF482734360002383604FF4BF
:100858004072C260036143614FF400728261C361F8
:100868000362436283620722C2620363082343630D
:1008780001F046FF00B908BDFFF77CFFE005002046
:10088800003C004008B50B480B4B03604FF4E133C4
:10089800436000238360C36003610C22426183616B
:1008A800C3610362436202F070FA00B908BDFFF742
:1008B80061FF00BF440600200038014008B50B481E
:1008C8000B4B03604FF4E133436000238360C36044
:1008D80003610C2242618361C3610362436202F0D7
:1008E80054FA00B908BDFFF745FF00BFCC06002049
:1008F8000048004008B50B484FF0A04303600623AA
:1009080003710223C371437200238372C37203739A
:100918004373C373837302F069FA00B908BDFFF724
:1009280029FF00BFB800002000B597B0442200217D
:1009380005A802F0D7FC00230093019302930393C8
:1009480004934FF4007001F09FFD002831D101F0AD
:100958008BFD1B4AD2F8903023F01803C2F8903070
:1009680014230593012307930B9300220C92602212
:100978000D9202220F9210931193282312930723AA
:1009880013931492159205A800F010FC98B90F2340
:1009980000930323019300230293039304930421F8
:1009A800684600F011FF40B901F084FB17B05DF80C
:1009B80004FBFFF7DFFEFFF7DDFEFFF7DBFE00BFFE
:1009C8000010024008B500F019FBFFF7ADFFFFF774
:1009D80079FDFFF7D1FEFFF7EFFEFFF715FFFFF7F1
:1009E8002DFFFFF74FFFFFF769FFFFF783FFFEE7D4
:1009F800FEE7FEE7FEE7FEE7FEE770477047704751
:100A080008B500F00BFB08BD08B5202001F060FC1C
:100A1800402001F05DFC802001F05AFC4FF480700A
:100A280001F056FC08BD08B54FF4806001F050FC99
:100A38004FF4006001F04CFC4FF4005001F048FC0A
:100A48004FF4804001F044FC4FF4004001F040FCBA
:100A580008BD000082B00A4B1A6E42F001021A6605
:100A68001A6E02F001020092009A9A6D42F08052CA
:100A78009A659B6D03F080530193019B02B0704708
:100A88000010024000B5ABB00021259126912791B6
:100A980028912991882203A802F024FC1A4B1B688C
:100AA80013B12BB05DF804FB4FF48033039303A814
:100AB80001F0D6F828BB154B1A6E42F080721A6600
:100AC8001A6E02F080720192019ADA6C42F01002FA
:100AD800DA64DB6C03F010030293029B4FF420737B
:100AE80025930223269300232793289306232993EB
:100AF80025A9074801F0E6FA034A13680133136091
:100B0800CFE7FFF737FED6E7540700200010024072
:100B18000010004810B5AAB004460021259126917E
:100B2800279128912991882203A802F0DBFB2268EB
:100B3800184B9A4201D02AB010BD8023039303A812
:100B480001F08EF810BB144CE36C43F00203E3642D
:100B5800E36C03F002030193019B4FF44063259378
:100B680012232693012327930323289304232993ED
:100B780025A90A4801F0A6FAA36D43F48003A365EA
:100B8800A36D03F480030293029BD4E7FFF7F2FD01
:100B9800D9E700BF00580040001002400004004898
:100BA80000B589B000230393049305930693079334
:100BB8000268154B9A4202D009B05DF804FB03F1B4
:100BC800204303F500331A6D42F480721A651A6DDA
:100BD80002F480720192019ADA6C42F01002DA642F
:100BE800DB6C03F010030293029B4FF47C430393E6
:100BF80002230493032306930A23079303A90348B4
:100C080001F060FAD8E700BF001000A0001000480B
:100C180000B589B0002303930493059306930793C3
:100C28000268144B9A4202D009B05DF804FB03F540
:100C3800EA339A6D42F400429A659A6D02F40042D2
:100C48000192019ADA6C42F00402DA64DB6C03F078
:100C580004030293029B4FF4E0530393022304938B
:100C6800032306930623079303A9034801F02AFAEE
:100C7800DAE700BF003C00400008004810B5ACB0FF
:100C8800044600212791289129912A912B918822A5
:100C980005A802F027FB23682F4A934204D02F4A65
:100CA80093422CD02CB010BD0123059305A800F069
:100CB800D7FF08BB2A4B1A6E42F480421A661A6E96
:100CC80002F480420192019ADA6C42F00202DA647C
:100CD800DB6C03F002030293029BC02327930223D9
:100CE80028930023299303232A9307232B9327A9C7
:100CF8001C4801F0E7F9D5E7FFF73CFDDAE70423E4
:100D0800059305A800F0ACFF10BB154B9A6D42F493
:100D180080229A659A6D02F480220392039ADA6C13
:100D280042F00802DA64DB6C03F008030493049BC6
:100D38004FF4407327930223289300232993032316
:100D48002A9307232B9327A9074801F0BBF9A9E7A2
:100D5800FFF710FDD9E700BF003801400048004008
:100D68000010024000040048000C004830B5ABB049
:100D780004460021259126912791289129918822BE
:100D880003A802F0AFFA2368B3F1A04F01D02BB04B
:100D980030BD4FF4005303934FF080631E9301233B
:100DA80004930593182306930723079302230893B4
:100DB80009934FF480130A9303A800F051FF002809
:100DC80040D1234CE36C43F00103E364E36C03F08C
:100DD80001030093009B4FF400732593002526958B
:100DE800279525A94FF0904001F06CF94FF4E05396
:100DF8002593022326932795032328930A232993CF
:100E080025A94FF0904001F05DF9E36C43F480535D
:100E1800E364E36C03F480530193019BA36D13F027
:100E2800805F12D1A36D43F08053A365A36D03F0D7
:100E380080530293029B01F06FFBA36D23F0805354
:100E4800A365A4E7FFF796FCBBE701F065FB9EE707
:100E580000100240124B984215D02033984214D00B
:100E68002033984213D04033984212D0203398420E
:100E780011D02033984210D02033984201D003205B
:100E880070470720704700207047012070470220F4
:100E9800704704207047052070470620704700BF40
:100EA80000600140002878D010B504460068FFF7BC
:100EB800D1FF3B4B53F820300BB1012010BD204629
:100EC800FFF7E0FD374B1A6801321A601B68012BE7
:100ED80045D02268136823F47143136021680A68B7
:100EE800236960690343A069034313430B602268C5
:100EF800136823F00F03136021680B68E269206A06
:100F0800024313430B602268936823F45F039360E2
:100F180020688368626AA16A013942EA0142134380
:100F280083602268536803F00703536021684A68A6
:100F3800E06A236BDB0043EA002313434B6022681B
:100F4800136843F080031360012384F83430206869
:100F5800FFF780FF124B43F820400020AEE7124B0A
:100F68001A6822F080421A601A68A1680A431A6057
:100F78001A6822F47F021A602379012B05D00A4AE5
:100F8800136843F000431360A3E707490B68E2685E
:100F9800013A43EA02430B60F1E70120704700BFC2
:100FA800580700207807002000600140104B1B788C
:100FB8000BB90120704710B504464FF47A70B0FBA6
:100FC800F3F30C4A1068B0FBF3F001F005FB68B9C5
:100FD8000F2C01D901200AE0002221464FF0FF30F2
:100FE80001F0B4FA044B1C60002000E0012010BDA1
:100FF80000000020080000200400002010B5032095
:1010080001F092FA0020FFF7D1FF10B10124204629
:1010180010BD0446FFF71EFDF9E70000034B1B78DF
:10102800034A11680B441360704700BF000000209A
:101038007C070020014B1868704700BF7C07002020
:1010480038B50446FFF7F6FF0546B4F1FF3F02D076
:10105800044B1B781C44FFF7EDFF401BA042FAD35A
:1010680038BD00BF0000002030B583B00446204BD7
:101078009B6D13F0805F0BD001F0FEF9B0F5007F97
:1010880017D0802C1FD82DD0702C2DD000211BE01C
:10109800174DAB6D43F08053AB65AB6D03F08053D8
:1010A8000193019B01F0E8F9AB6D23F08053AB6528
:1010B800E4E7802C03D9A02C03D9022104E0002105
:1010C80002E0012100E003210A4A136823F0070324
:1010D8000B431360136803F007038B4206D100200B
:1010E80003B030BD0221EFE70121EDE70120F7E76A
:1010F8000010024000200240284A9368D26802F09B
:10110800030213F00C030AD00C2B06D0042B1FD0BB
:10111800082B20D00020024610E0012AF6D11F4AF1
:10112800126812F0080F0CD11C4AD2F89420C2F3AE
:1011380003221B4951F8222043B100200C2B0DD06B
:101148007047164A1268C2F30312F2E71046F5E731
:1011580014480022F2E714480022EFE70F4BDB683F
:1011680003F00303022B16D0032B00D10E4A0B49C0
:10117800C868C0F30210431CC868C0F3062002FB0D
:1011880000F0B0FBF3F0CB68C3F3416301335B00BD
:10119800B0FBF3F0D4E7034AE9E700BF00100240D0
:1011A800303300080024F40000127A00002800F010
:1011B800F182F0B583B00446964B9D6805F00C05A6
:1011C800DE6806F00306036813F0100F5AD0E5B185
:1011D8000C2D18D0A369002B00F0BB808D4A136832
:1011E80043F001031360FFF725FF0746894B1B688F
:1011F80013F0020F40F09A80FFF71CFFC01B022873
:10120800F4D90320D1E2012EE4D1824B1B6813F0FC
:10121800020F03D0A369002B00F0BE82206A7D4B29
:101228001B6813F0080F5BD07A4B1B6803F0F003C0
:1012380098425CD8774B1A6842F008021A601A681C
:1012480022F0F002216A0A431A605A6822F47F42A7
:10125800E16942EA01225A60002D60D0FFF74CFF95
:101268006C4B9B68C3F303136B4AD35C03F01F03F7
:10127800D8406A4B18606A4B1868FFF797FE002839
:1012880040F09382236813F0010F00F08180082D4D
:1012980075D00C2D71D06368B3F5803F00F097804E
:1012A800B3F5A02F00F099805A4B1A6822F48032C7
:1012B8001A601A6822F480221A606368002B00F012
:1012C8009980FFF7B7FE0746524B1B6813F4003F9F
:1012D8005ED1FFF7AFFEC01B6428F5D9032064E296
:1012E8004C4BD3F894301B0903F0F003A0E7FFF749
:1012F800BBFE002840F05282464B1A6842F00802B2
:101308001A601A6822F0F002216A0A431A605A68C1
:1013180022F47F42E16942EA01225A609EE7206A8C
:10132800FFF7A2FE002899D001203EE2394B1A6847
:1013380042F008021A601A6822F0F002216A0A4391
:101348001A605A6822F47F42E16942EA01225A602F
:1013580098E7304A136823F001031360FFF76AFE29
:1013680007462C4B1B6813F0020F8BD0FFF762FE69
:10137800C01B0228F5D9032017E2032E8BD1254B79
:101388001B6813F4003F03D06368002B00F0088249
:10139800236813F0020F58D0042D45D00C2D41D0EE
:1013A800E368002B77D01B4A136843F480731360FB
:1013B800FFF740FE0646174B1B6813F4806F61D198
:1013C800FFF738FE801B0228F5D90320EDE1114A0A
:1013D800136843F4803313606FE703F18043A3F588
:1013E8003C331A6842F480221A601A6842F4803248
:1013F8001A6062E7FFF71EFE0746064B1B6813F4E8
:10140800003FC5D0FFF716FEC01B6428F5D903209E
:10141800CBE100BF0010024018330008080000208C
:1014280004000020022EBBD1A34B1B6813F4806F6D
:1014380003D0E368002B00F0B5819F4A536823F07E
:10144800F853216943EA01635360236813F0080FD6
:101458004CD063699BB3984AD2F8943043F00103A7
:10146800C2F89430FFF7E6FD0646934BD3F8943064
:1014780013F0020F3AD1FFF7DDFD801B0228F4D9E3
:10148800032092E18C4A536823F0F853216943EA18
:1014980001635360D9E7884A136823F480731360A3
:1014A800FFF7C8FD0646844B1B6813F4806FCCD049
:1014B800FFF7C0FD801B0228F5D9032075E17E4A9D
:1014C800D2F8943023F00103C2F89430FFF7B2FD4C
:1014D8000646794BD3F8943013F0020F06D0FFF785
:1014E800A9FD801B0228F4D903205EE1236813F0CC
:1014F800040F7AD0704B9B6D13F0805F36D16E4B22
:101508009A6D42F080529A659B6D03F08053019367
:10151800019B0126694B1B6813F4807F28D0A368C0
:10152800012B39D0052B3FD0634BD3F8902022F004
:101538000102C3F89020D3F8902022F00402C3F8E7
:101548009020A368002B3DD0FFF774FD07465A4B47
:10155800D3F8903013F0020F46D1FFF76BFDC01B94
:1015680041F288339842F2D903201EE10026D1E7E0
:10157800524A136843F480731360FFF75BFD074614
:101588004E4B1B6813F4807FC9D1FFF753FDC01B76
:101598000228F5D9032008E1474AD2F8903043F0F1
:1015A8000103C2F89030CCE7434BD3F8902042F0C7
:1015B8000402C3F89020D3F8902042F00102C3F847
:1015C8009020BEE7FFF736FD07463B4BD3F8903037
:1015D80013F0020F08D0FFF72DFDC01B41F288332E
:1015E8009842F2D90320E0E0EEB9A36A002B00F09C
:1015F800DB80022B1DD00C2D00F0DD802E4A1368F5
:1016080023F080731360FFF715FD04462A4B1B680F
:1016180013F0007F00F0B780FFF70CFD001B0228D5
:10162800F4D90320C1E0244A936D23F080539365D5
:10163800DBE7214BDB6803F00301E26A91420FD03C
:101648000C2D00F0B4801C4B1B6813F0806F40F029
:10165800B080194B1B6813F0805F31D00120A4E0E3
:1016680003F07002216B0139B2EB011FE8D103F4DA
:10167800FE42616BB2EB012FE2D103F40031A26BA1
:10168800073A18BF01229142DAD103F4C001E26B94
:101698005208013AB1EB425FD2D103F0C063226C29
:1016A8005208013AB3EB426FCAD1034B1B6813F0DF
:1016B800007F4ED0002078E000100240007000400B
:1016C8003E4A136823F080731360FFF7B3FC0546A6
:1016D8003A4B1B6813F0007F06D0FFF7ABFC401BAA
:1016E8000228F5D9032060E0344AD3683449194008
:1016F800E36A206B013843EA0013606B43EA002376
:10170800E06B4008013843EA4053206C4008013838
:1017180043EA4063A06B000943EA40430B43D360AC
:10172800136843F080731360D36843F08073D36009
:10173800FFF780FC0446214B1B6813F0007F06D19D
:10174800FFF778FC001B0228F5D903202DE00020C4
:101758002BE01A4B1A6842F080721A60DA6842F07D
:101768008072DA60FFF766FC0446144B1B6813F0BE
:10177800007F06D1FFF75EFC031B022BF5D903207F
:1017880013E0002011E00D4AD1680E4B0B40D360E6
:1017980000200AE001207047012006E0012004E053
:1017A800012002E0012000E0002003B0F0BD01208C
:1017B800FBE70120F9E70120F7E700BF001002402E
:1017C8008C809DF9FCFFEEFE002800F0AF8070B51C
:1017D8000D460446594B1B6803F007038B420BD296
:1017E800564A136823F007030B431360136803F08A
:1017F80007038B4240F09C80236813F0020F0CD043
:10180800A2684F4B9B6803F0F0039A4205D94C49F4
:101818008B6823F0F0031A438A60236813F0010FE2
:1018280039D06368032B09D0022B26D063BB444A06
:10183800126812F0020F06D1012076E0404A1268C1
:1018480012F0007F76D03E498A6822F003021343E3
:101858008B60FFF7EFFB0646394B9B6803F00C03E0
:101868006268B3EB820F16D0FFF7E4FB801B41F2EE
:1018780088339842F0D9032057E0314A126812F4AD
:10188800003FE0D1012050E02D4A126812F4806F29
:10189800D9D1012049E0236813F0020F0CD0A268C7
:1018A800274B9B6803F0F0039A4205D224498B68C2
:1018B80023F0F0031A438A60204B1B6803F00703E8
:1018C800AB420AD91D4A136823F007032B43136060
:1018D800136803F00703AB422ED1236813F0040FFB
:1018E80006D0174A936823F4E063E1680B439360DA
:1018F800236813F0080F07D0114A936823F4605344
:10190800216943EAC1039360FFF7F6FB0C4B9B6820
:10191800C3F303130B4AD35C03F01F03D8400A4BED
:1019280018600A4B1868FFF741FB70BD012070472B
:101938000120FAE70120F8E70120F6E7002002403D
:10194800001002401833000808000020040000209E
:10195800014B1868704700BF0800002008B5FFF762
:10196800F7FF054B9B68C3F30223044AD35C03F0DB
:101978001F03D84008BD00BF0010024028330008EC
:1019880008B5FFF7E5FF054B9B68C3F3C223044A7C
:10199800D35C03F01F03D84008BD00BF001002400D
:1019A80028330008F8B504460F46594BDB6813F096
:1019B800030F18D0564BDB6803F003030268934209
:1019C80002D001252846F8BD002A00F09E80504B21
:1019D800DB68C3F3021301334268934201D0012547
:1019E800F0E7002509E00368022B57D0032B5CD0F1
:1019F800012B42D00125002DE4D1454A136823F07C
:101A080080631360FFF716FB0646414B1B6813F013
:101A1800006F05D0FFF70EFB831B022BF5D90325BA
:101A2800002DCFD1002F4ED139490B6923F41F3334
:101A380023F44073A068E2681209520442EA0022C3
:101A480013430B61324A136843F080631360FFF756
:101A5800F1FA06462E4B1B6813F0006F05D1FFF70D
:101A6800E9FA831B022BF5D90325002DAAD1284AB0
:101A78001369A1690B431361A4E7254A126812F0A0
:101A8800020F1ED02248C26822F073026168013931
:101A980043EA01131343C3600025ACE71C4A1268EC
:101AA80012F4806FEED10125A5E7194A126812F4E5
:101AB800003FE7D1164A126812F4802FE2D10125BF
:101AC80099E7012597E7012F0FD01148026922F005
:101AD800C06222F4FE42A16863695B08013B5B06B1
:101AE80043EA012313430361ACE70948026922F47E
:101AF800C00222F4FE42A16823695B08013B5B0532
:101B080043EA0123134303619CE701255AE700BF19
:101B180000100240F8B504460F46504BDB6813F03E
:101B2800030F18D04D4BDB6803F0030302689342A0
:101B380002D001252846F8BD002A00F08C80474BCA
:101B4800DB68C3F3021301334268934201D00125D5
:101B5800F0E7002509E00368022B57D0032B5CD07F
:101B6800012B42D00125002DE4D13C4A136823F013
:101B780080531360FFF75EFA0646384B1B6813F074
:101B8800005F05D0FFF756FA831B022BF5D9032512
:101B9800002DCFD1002F4ED130494B6923F41F338C
:101BA80023F44073A068E2681209520442EA002252
:101BB80013434B61294A136843F080531360FFF7BE
:101BC80039FA0646254B1B6813F0005F05D1FFF76D
:101BD80031FA831B022BF5D90325002DAAD11F4A00
:101BE800536961690B435361A4E71C4A126812F0F8
:101BF800020F1ED01948C26822F0730261680139C9
:101C080043EA01131343C3600025ACE7134A126883
:101C180012F4806FEED10125A5E7104A126812F47C
:101C2800003FE7D10D4A126812F4802FE2D1012556
:101C380099E7012597E70948426922F0C06222F432
:101C4800FE42A16823695B08013B5B0643EA012366
:101C580013434361AEE701256CE700BF0010024063
:101C68002DE9F04182B00446036813F4006F33D0C5
:101C7800436EB3F5000F1FD00CD823B3B3F5800F14
:101C880005D100212030FFF745FF064620E0012757
:101C98003E4623E0B3F5400F0BD10026604AD2F848
:101CA800883023F44003616E0B43C2F88830002764
:101CB80014E001273E4611E0594AD36843F48033C3
:101CC800D3600026EAE700210430FFF76BFE0646E2
:101CD800002EE3D0374601E000273E46236813F480
:101CE800805F30D0A36EB3F1007F1FD00DD81BB337
:101CF800B3F1807F06D1002104F12000FFF70AFF2D
:101D0800064605E001273E461DE0B3F1407F0AD1B3
:101D1800C6B9434AD2F8883023F04073A16E0B430A
:101D2800C2F888300FE001273E460CE03C4AD368F1
:101D380043F48033D360EBE70021201DFFF732FE28
:101D48000646E5E73746236813F4003F71D0344B65
:101D58009B6D13F0805F4ED1314B9A6D42F08052EB
:101D68009A659B6D03F080530193019B4FF0010826
:101D78002C4A136843F480731360FFF75BF9054638
:101D8800284B1B6813F4807F05D1FFF753F9401BDC
:101D98000228F5D90326002E46D1214BD3F89030DE
:101DA80013F4407316D0D4F884209A4212D01C4AF7
:101DB800D2F8903023F44073D2F8901041F4803177
:101DC800C2F89010D2F8901021F48031C2F8901027
:101DD800C2F8903013F0010F10D1002E40F0278187
:101DE8000F4AD2F8903023F44073D4F884100B4390
:101DF800C2F8903019E04FF00008B9E7FFF71AF978
:101E08000546074BD3F8903013F0020FE5D1FFF7E2
:101E180011F9401B41F288339842F2D90326DCE7D6
:101E280000100240007000403746B8F1000F40F043
:101E38000081236813F0010F08D09D4AD2F888303A
:101E480023F00303A16B0B43C2F88830236813F017
:101E5800020F08D0964AD2F8883023F00C03E16BC1
:101E68000B43C2F88830236813F0040F08D0904A57
:101E7800D2F8883023F03003216C0B43C2F8883045
:101E8800236813F0080F08D0894AD2F8883023F065
:101E9800C003616C0B43C2F88830236813F0100F3D
:101EA80008D0834AD2F8883023F44073A16C0B43DE
:101EB800C2F88830236813F0200F08D07C4AD2F883
:101EC800883023F44063E16C0B43C2F88830236800
:101ED80013F4007F08D0764AD2F8883023F44023E0
:101EE800E16D0B43C2F88830236813F4806F08D083
:101EF8006F4AD2F8883023F44013216E0B43C2F89E
:101F08008830236813F0400F08D0694AD2F8883027
:101F180023F44053216D0B43C2F88830236813F033
:101F2800800F08D0624AD2F8883023F44043616DAC
:101F38000B43C2F88830236813F4807F08D05C4ACA
:101F4800D2F8883023F44033A16D0B43C2F88830AF
:101F5800236813F4005F0FD0554AD2F8883023F075
:101F68004063E16E0B43C2F88830E36EB3F1006F53
:101F780065D0B3F1806F67D0236813F4002F0FD0BA
:101F88004B4AD2F8883023F04063216F0B43C2F8E4
:101F98008830236FB3F1006F5ED0B3F1806F60D0EB
:101FA800236813F4802F0FD0414AD2F8883023F0E9
:101FB8004063616F0B43C2F88830636FB3F1006F01
:101FC80057D0B3F1806F59D0236813F4804F0FD0E6
:101FD800374AD2F8883023F04053A16F0B43C2F838
:101FE8008830A36FB3F1805F50D0B3F1005F55D054
:101FF800236813F4004F08D02D4AD2F8883023F014
:102008008043E16F0B43C2F88830236813F4803FA4
:1020180009D0274AD2F8883023F00043D4F880103A
:102028000B43C2F88830384602B0BDE8F081374625
:10203800FBE61F4A936D23F080539365F9E6D36856
:1020480043F48013D36097E70121201DFFF7AAFC12
:10205800002891D007468FE7D36843F48013D360F4
:102068009EE70121201DFFF79DFC002898D0074618
:1020780096E7D36843F48013D360A5E70121201DB8
:10208800FFF790FC00289FD007469DE70221201DFE
:10209800FFF788FC0028ABD00746A9E7022104F126
:1020A8002000FFF737FD0028A2D00746A0E700BFB1
:1020B80000100240024A136843F00403136070479B
:1020C80000100240F0B583B000236BE085685E0025
:1020D8000324B44025EA0405CC68B4402C4384604A
:1020E800456825EA0C054C68C4F300149C402C4351
:1020F800446069E0C56A25EA0C0CC4F3C0049C403E
:1021080044EA0C04C46265E0DD08083550F825602F
:1021180003F007044FEA840C0F2404FA0CF426EAAF
:10212800040E0C6904FA0CF444EA0E0440F8254045
:1021380067E0062400E0002404FA0EF42C430CF1B6
:10214800020C5C4D45F82C405B4CA568D44325EA4D
:1021580002064F6817F4801F01D042EA0506564D63
:10216800AE60ED6804EA05064F6817F4001F01D059
:1021780042EA0506504DEE606D6804EA05064F68B0
:1021880017F4003F01D042EA05064B4D6E602D68FA
:102198002C404E6816F4803F01D042EA0504464AB6
:1021A800146001330A6832FA03F400F081804FF0BA
:1021B800010C0CFA03FC1CEA0202F2D04C6804F091
:1021C8000304013C012C81D94C6804F0030EBEF1D4
:1021D800030F8FD04C6804F00304032C0CD0C468A0
:1021E8005D004FF0030C0CFA05FC24EA0C0C8C681B
:1021F800AC4044EA0C04C4604C6804F00304022CAC
:1022080082D004684FEA430E4FF0030C0CFA0EFC20
:1022180024EA0C0C4C6804F0030404FA0EF444EAB3
:102228000C0404604C6814F4403FBAD0234C256E6B
:1022380045F001052566246E04F001040194019C13
:102248004FEA930C0CF102051A4C54F8255003F090
:1022580003044FEA840E0F2404FA0EF425EA040559
:10226800B0F1904F3FF467AF154CA04216D004F57B
:102278008064A04214D004F58064A04212D004F512
:102288008064A04210D004F58064A0420ED004F50A
:102298008064A0423FF44DAF07244DE701244BE78B
:1022A800022449E7032447E7042445E7052443E7D4
:1022B80003B0F0BD000001400004014000100240DE
:1022C800000400480AB18161704781627047704715
:1022D80008B5054B5B69034200D108BD024B586144
:1022E800FFF7F5FFF9E700BF0004014000285FD0C1
:1022F80010B5044690F84130002B48D0242384F8C8
:1023080041302268136823F0010313606368226870
:1023180023F0706313612268936823F40043936089
:10232800E368012B38D0A368226843F40443936020
:10233800E368022B36D02268536823F400635360A5
:102348002268536843F0007343F4004353602268E3
:10235800D36823F40043D360236962691343A169F6
:10236800226843EA0123D360E369216A22680B43A8
:1023780013602268136843F001031360002060644F
:10238800202384F84130206384F8420010BD80F88F
:102398004030FEF7BFFBB1E7A368226843F400436F
:1023A8009360C5E72268536843F400635360C7E746
:1023B8000120704790F84130DBB2202B24D190F8EF
:1023C8004030012B22D0012380F84030242380F8AC
:1023D80041300268136823F0010313600268136830
:1023E80023F480531360026813681943116002686C
:1023F800136843F001031360202380F84130002361
:1024080080F8403018467047022070470220704715
:1024180090F84130DBB2202B22D190F84030012BCC
:1024280020D0012380F84030242380F8413002680E
:10243800136823F0010313600268136823F47063C0
:1024480043EA012111600268136843F00103136035
:10245800202380F84130002380F840301846704728
:102468000220704702207047024A136843F48073C1
:102478001360704700700040024B186800F4C06099
:10248800704700BF00700040B0F5007F0FD01F4BB1
:102498001B6803F4C063B3F5806F34D01B4A13681C
:1024A80023F4C06343F48063136000207047174B24
:1024B8001B6803F4C063B3F5007F20D0134A136888
:1024C80023F4C06343F400731360114B1B6832227A
:1024D80002FB03F30F4AA2FB03239B0C013300E02A
:1024E800013B0A4A526912F4806F01D0002BF7D1E0
:1024F800064B5B6913F4806F03D1002070470020FE
:102508007047032070470020704700BF00700040EC
:102518000800002083DE1B43024A536843F48063AB
:102528005360704700700040074AD36823F4E063A3
:102538001B041B0C000200F4E060034343F0BF637C
:1025480043F40033D360704700ED00E000B5194B49
:10255800DB68C3F30223C3F1070CBCF1040F28BFE7
:102568004FF0040C03F1040EBEF1060F18D9033B1B
:102578004FF0FF3E0EFA0CFC21EA0C0199400EFACE
:1025880003F322EA0303194300280BDB0901C9B24C
:1025980000F1604000F5614080F800135DF804FB2D
:1025A8000023E5E700F00F000901C9B2024B1954F6
:1025B800F4E700BF00ED00E014ED00E0002807DBC1
:1025C80000F01F02400901239340024A42F82030DC
:1025D800704700BF00E100E00138B0F1807F0BD206
:1025E8004FF0E0235861054AF02182F823100020BB
:1025F800986107221A6170470120704700ED00E0DA
:102608002DE9F84305460F4616469946DDF8208021
:102618002C68A4683C4214BF4FF0010C4FF0000C2A
:10262800B44514D0B8F1FF3FF2D0FEF703FDA0EB9C
:102638000900404502D8B8F1000FE9D1042385F814
:102648003930EB6B43F00103EB63012000E000201D
:10265800BDE8F8830164704770B582B00446FEF7A0
:10266800E9FC002C48D0064694F83930002B38D0C5
:1026780025682A6822F47062A168013942EA0122B9
:102688002A60236C00933346002220212046FFF75E
:10269800B7FF08BB21680B6823F07F4323F01003C2
:1026A8006568E26842EA056213430B6021684A687C
:1026B800124B13402569626942EA0542A5692A431B
:1026C80013434B602268136843F00103136000232F
:1026D800E363012384F83930002384F8383002B0EA
:1026E80070BD84F838302046FEF75AFA41F2883136
:1026F8002046FFF7AFFFBBE70120F0E7FEF8E0FF59
:1027080000286AD010B50446436A33B94368B3F564
:10271800827F05D00023C36102E000230361436187
:102728000023A36294F85D30002B4DD0022384F877
:102738005D302268136823F040031360E368B3F543
:10274800E06F47D90022B3F5706F04D0B3F5E06F9E
:1027580001D00023A362636803F48273A16801F4C3
:1027680004410B43216901F002010B43616901F047
:1027780001010B43A16901F400710B43E16901F008
:1027880038010B43216A01F080010B43A16A01F46F
:10279800005120680B430360638B03F00403616AF4
:1027A80001F010010B43616B01F008010B43E16874
:1027B80001F470610B43216813434B6000202066CD
:1027C800012384F85D3010BD84F85C302046FEF7A4
:1027D8001FFAABE74FF48052B5E701207047026853
:1027E80052E8003F23F4907342E800310029F6D103
:1027F800026802F1080353E8003F23F0010308329E
:1028080042E800310029F3D1036E012B06D02023C2
:10281800C0F880300023036683667047026852E878
:10282800003F23F0100342E800310029F6D1EEE71B
:1028380010B504460168836802691343426913436B
:10284800C269134308688E4A024013430B6022682A
:10285800536823F44053E1680B435360A16922682D
:10286800884B9A4201D0236A1943936823F4306352
:102878000B4393602368844A934210D0834A93425F
:1028880021D0834A934237D0824A93425CD0824A0D
:1028980093426BD07B4A93427DD010223AE002F5F6
:1028A8005842D2F8882002F00302032A09D8DFE848
:1028B80002F00204870601222CE004222AE0082202
:1028C80028E0102226E002F5E632D2F8882002F04D
:1028D8000C020C2A0ED8DFE802F0070D0D0D090DC9
:1028E8000D0D750D0D0D0B00002213E0042211E0F3
:1028F80008220FE010220DE002F5E432D2F8882019
:1029080002F03002202A5FD01AD8002A5ED0102A9E
:102918005ED104225B498B4276D0E069B0F5004F66
:1029280000F0A380082A00F20E81DFE812F0DD0033
:10293800F300DB000C01F6000C010C010C01F9009E
:10294800302A47D10822E5E702F5E232D2F888209A
:1029580002F0C002802A3FD004D8FAB3402A3FD1FF
:102968000422D7E7C02A3DD10822D3E702F5E03296
:10297800D2F8882002F44072B2F5007F34D005D82E
:10298800A2B3B2F5807F33D10422C3E7B2F5407F0A
:1029980030D10822BEE702F5C832D2F8882002F406
:1029A8004062B2F5006F27D005D83AB3B2F5806F10
:1029B80026D10422AEE7B2F5406F23D10822A9E759
:1029C8000222A7E70222A5E70222A3E70022A1E745
:1029D80010229FE710229DE702229BE7002299E739
:1029E800102297E7102295E7022293E7002291E749
:1029F80010228FE710228DE702228BE7002289E759
:102A0800102287E7102285E7082A00F28C80DFE889
:102A180002F0088A2A8A278A8A8A05004FF4004029
:102A280003E0FEF79BFF00287FD0626802EB4203B9
:102A380083427CD8B0EB023F7BD8010E00025308DA
:102A4800C0184FF0000341F10001FDF7B9FBA0F5F4
:102A58004072124B9A426ED82368D860002055E025
:102A6800FEF74AFBDFE70E48DFE7082A65D8DFE80C
:102A780002F019330564366464641D00084815E0E3
:102A8800F369FFEF00800040003801400044004037
:102A980000480040004C004000500040FFFC0F0080
:102AA8000024F400FEF75AFF002848D06268530853
:102AB80003EB4000B0FBF2F0A0F110024FF6EF7309
:102AC8009A423ED883B223F00F03C0F34200184362
:102AD8002368D860002019E0FEF752FFE4E7FEF70C
:102AE8000BFBE1E71B4802E0FEF738FF68B36368B9
:102AF80000EB5300B0FBF3F0A0F110024FF6EF73B8
:102B08009A4224D8236880B2D86000200023A366A4
:102B1800E36610BDFEF734FFE8E7FEF7EDFAE5E7F8
:102B28004FF40040E3E70120F0E70020EEE7012042
:102B3800ECE70120EAE70120E8E70120E6E70020CA
:102B4800E4E70120E2E70120E0E70020DEE70120DA
:102B5800DCE700BF0024F400436A13F0080F06D036
:102B68000268536823F40043416B0B435360436A84
:102B780013F0010F06D00268536823F40033816A0A
:102B88000B435360436A13F0020F06D00268536880
:102B980023F48033C16A0B435360436A13F0040F74
:102BA80006D00268536823F48023016B0B435360FB
:102BB800436A13F0100F06D00268936823F4805319
:102BC800816B0B439360436A13F0200F06D00268B1
:102BD800936823F40053C16B0B439360436A13F06B
:102BE800400F0AD00268536823F48013016C0B432A
:102BF8005360036CB3F5801F0BD0436A13F0800F4A
:102C080006D00268536823F40023816C0B43536099
:102C180070470268536823F4C003416C0B43536048
:102C2800EBE72DE9F84305460E4617469946DDF8C9
:102C380020802C68E46936EA04030CBF4FF0010CCD
:102C48004FF0000CBC4536D1B8F1FF3FF1D0FEF78C
:102C5800F1F9A0EB0900404530D8B8F1000F2FD0AA
:102C68002B681A6812F0040FE3D0802EE1D0402EB2
:102C7800DFD0DA6912F0080F11D1DA6912F4006FA7
:102C8800D7D04FF400621A622846FFF7A8FD202328
:102C9800C5F88430002385F8783003200CE0082438
:102CA8001C622846FFF79BFDC5F88440002385F881
:102CB8007830012000E00020BDE8F8830320FBE71E
:102CC8000320F9E730B583B004460023C0F8843008
:102CD800FEF7B0F905462268126812F0080F0FD106
:102CE80023681B6813F0040F26D12023E367C4F878
:102CF800803000202066606684F8780003B030BD1C
:102D08006FF07E430093034600224FF400112046E3
:102D1800FFF787FF0028E3D0226852E8003F23F03E
:102D2800800342E800310029F6D12023E36700231D
:102D380084F878300320E1E76FF07E4300932B4658
:102D480000224FF480012046FFF76BFF0028CCD00B
:102D5800226852E8003F23F4907342E800310029CA
:102D6800F6D1226802F1080353E8003F23F001037B
:102D7800083242E800310029F3D12023C4F880301A
:102D8800002384F878300320B8E768B310B5044608
:102D9800C36F03B32423E3672268136823F0010396
:102DA8001360636AE3B92046FFF742FD012811D09A
:102DB8002268536823F4904353602268936823F091
:102DC8002A0393602268136843F0010313602046C6
:102DD800FFF778FF10BD80F87830FDF74FFFD9E78F
:102DE8002046FFF7B9FEDEE70120704730B583B013
:102DF80000287CD0044690F89534BBB1032384F8AE
:102E080095340023A371206800F0C8F8237C8DF85E
:102E18000030231D0ECB206800F0A3F858B1022320
:102E280084F895340125284603B030BD80F89434E1
:102E3800FDF79CFFE2E70021206800F0C9F902468F
:102E480008B9034617E0022384F895340125EAE718
:102E580003EBC30104EB8101012048750B75CB8599
:102E680000200876C861086203EBC30104EB810106
:102E780048620133DBB220799842E9D816E002EBC8
:102E8800C20304EB8303002183F8551283F854220C
:102E980083F85812C3F85C12C3F8601202EBC2033D
:102EA80004EB8303C3F864120132D2B29042E6D82D
:102EB800237C8DF80030231D0ECB206800F0C4F869
:102EC800054658B900236374012384F89534237B9D
:102ED800012B08D0206800F069F9A4E7022384F8E0
:102EE800953401259FE7204600F003F8F2E7012515
:102EF80099E7034602680121C0F8D814002083F836
:102F0800CC04936943F000639361536D43F080539D
:102F180043F003035365704782B000230193019B7C
:102F280001330193019BB3F1706F15D80369002B2E
:102F3800F5DA00230193036943F001030361019B60
:102F480001330193019BB3F1706F08D8036913F043
:102F5800010FF4D1002000E0032002B070470320E5
:102F6800FBE784B010B504460DF10C0C8CE80E009C
:102F7800C36843F04003C360FFF7CEFF9DF81530E8
:102F88003BB9A36B43F48033A363BDE8104004B09E
:102F98007047A36B23F48033A363F6E7836823F0B9
:102FA800010383600020704782B000230193019BD6
:102FB80001330193019BB3F1706F15D80369002B9E
:102FC800F5DA00230193890141F020010161019B99
:102FD80001330193019BB3F1706F08D8036913F0B3
:102FE800200FF4D1002000E0032002B07047032036
:102FF800FBE782B000230193019B01330193019BFE
:10300800B3F1706F13D80369002BF5DA002301932D
:1030180010230361019B01330193019BB3F1706F8E
:1030280008D8036913F0100FF4D1002000E0032042
:1030380002B070470320FBE7D0F800381943C0F806
:10304800001800207047000084B0F8B5044607A8AF
:1030580080E80E00002306E003F1400204EB820240
:103068000021516001330E2BF6D99DF8266076BBFE
:10307800D4F8043843F00203C4F80438A36B23F4EB
:103088000013A363236843F040032360236843F0DD
:10309800800323600023C4F8003E03212046FFF785
:1030A800CBFF10212046FFF77FFF054600B1012521
:1030B8002046FFF79EFF00B1012504F5006C0023B0
:1030C800CCF81030CCF81430CCF81C300FE0A36BDF
:1030D80043F40013A363DDE7CBB94FF00060C2F8F7
:1030E800000900220A614FF67F328A6001339DF899
:1030F8001C10994210D904EB431202F51061D2F862
:1031080000090028E8DB0020C2F80009E9E74FF0D1
:103118009040C2F80009E4E700230AE0BBB14FF091
:103128009047C2F8007B002202614FF67F3282602E
:103138000133994210D904EB431202F53060D2F8FA
:10314800007B002FEADB0027C2F8007BEBE74FF09B
:103158000067C2F8007BE6E7DCF8103023F48073E0
:10316800CCF810300023A3616FF080436361A3693A
:1031780043F01003A361A2690B4B1343A3619DF8AD
:1031880022301BB1A36943F00803A361012E04D0C8
:103198002846BDE8F84004B07047A36943F080436F
:1031A80043F00403A361F3E700383C80D0F8003E05
:1031B80023F00303C0F8003ED0F8043843F00203BC
:1031C800C0F8043800207047406900F001007047DB
:1031D80038B50546C36823F0C043C360012913D03E
:1031E80019BBC36843F08043C36000240A20FDF77D
:1031F80027FF0A342846FFF7E7FF08B1C72CF5D99F
:10320800C82C14D0002038BDC36843F00053C360F5
:1032180000240A20FDF714FF0A342846FFF7D4FFDC
:103228000128EDD0C72CF4D9EAE70120EBE701200B
:10323800E9E70000034AD2F8883043F47003C2F883
:103248008830704700ED00E0DFF834D0FFF7F2FF78
:103258000C480D490D4A002302E0D458C4500433E9
:10326800C4188C42F9D30A4A0A4C002301E01360BF
:103278000432A242FBD300F011F8FDF7A3FBFEE7EE
:103288000080012000000020100000207833000892
:103298001000002080070020FEE7000070B50D4DEB
:1032A8000D4C641BA4100026A64209D10B4D0C4CF2
:1032B80000F020F8641BA4100026A64205D170BDBA
:1032C80055F8043B98470136EEE755F8043B984714
:1032D8000136F2E7683300086833000868330008ED
:1032E8006C33000802440346934200D1704703F848
:1032F800011BF9E7F8B500BFF8BC08BC9E4670474B
:10330800F8B500BFF8BC08BC9E4670470000000036
:10331800000000000000000001020304060708097D
:103328000000000001020304A0860100400D030014
:10333800801A060000350C0040420F0080841E00F1
:1033480000093D0000127A000024F40000366E01E6
:083358000048E801006CDC02F2
:0833600098CEFF7F0100000080
:08336800AD01000800000000A7
:083370008901000800000000C3
:10337800010000001000000000093D0000000000EE
:04000005080032516C
:00000001FF
